:1000000002074D7FE87EFDE4FDFCC3ED9FEC9E50B2
:10001000070DBD00010C80F2228F993099FDC29925
:0100200022BD
:10002300020855C2B4C2B5758920758DFD75985007
:1000330075A890D28EE4F50CF50D1209457BFF7A75
:1000430009799A1208BE7FC01209597BFF7A097990
:10005300AB1208BE1200037F011209597F801209F7
:10006300597BFF7A0979BD1208BE7FC01209597BFB
:10007300FF7A0979D01208BE12000312069575089B
:1000830000750901E5096401450860030203CAF527
:1000930008F5097F011209597F801209597BFF7AFC
:1000A3000979E61208BE7FC01209597BFF7A0979E4
:1000B300F91208BEE4F50EF50F3098FDC2987FE8FB
:1000C3007E03120007741B250FF8A699050FE50F91
:1000D3007002050EC3940AE50E940040DC7F011202
:1000E30009597F801209597BFF7A0A79081208BEE1
:1000F300120003E4F525F515781C7C0A7DFFFB7AD5
:1001030000791B120562EF3395E04F701B7F0112DC
:1001130009597F801209597BFF7A0A79271208BE91
:10012300750C00750D01804278377C0A7DFF7B00DA
:100133007A00791B120562EF3395E04F7F01701946
:100143001209597F801209597BFF7A0A79421208F2
:10015300BE750C00750D0180111209597F801209BB
:10016300597BFF7A0A79521208BE7FC01209597B64
:10017300007A00791B1208BE12000312098EE50DE6
:100183006401450C600302008712098E1207D97FB0
:10019300647E00120007E4F558F5597F01120959EE
:1001A3007F801209597BFF7A0A79631208BE7FC0E8
:1001B3001209597BFF7A0A79721208BE3098FD1230
:1001C3000003E5156401706C7F011209597F8012E9
:1001D30009597BFF7A0A79721208BE7FC012095946
:1001E3007BFF7A0A79811208BE120003E51D642B96
:1001F3007042E51E6443703CE51F644D7036E52094
:10020300B45431E4F55AF55BF558755931741B252F
:1002130059F8E6FF7410255BF8A607055BE55B70EC
:1002230002055A0559E55970020558643545587059
:10023300DCE4F514C3E50B9403E50A9400400302E0
:1002430000877F011209597F801209597BFF7A0ABF
:1002530079901208BE7FC0120959E4F557C3E557D8
:10026300940574809480500B74162557F8E4F605B2
:100273005780EAE4F557C3E557940474809480509B
:100283000512057F80F078167C007D007B007A00E4
:100293007910120562EF3395E04F60030203601299
:1002A30000037F011209597F801209597BFF7A0AE3
:1002B30079A31208BE7FC01209597BFF7A0A79B469
:1002C3001208BE1200031200037F011209597F8036
:1002D3001209597BFF7A0A79C51208BE7FC0120939
:1002E300597BFF7A0A79D61208BED2B4C2B512007E
:1002F300031200037F011209597F801209597BFF02
:100303007A0A79E71208BE7FC01209591208B87534
:100313005C00755D011207D91208E37F01120959C8
:100323007F801209597BFF7A0B79091208BE7FC0BF
:100333001209591208B8C2B4D2B57FE87E03120875
:10034300EB7F801209597BFF7A0B791A1208BE7F63
:10035300C01209591208B81208E30200877F01127C
:1003630009597F801209597BFF7A0A79A31208BEC3
:100373007FC01209597BFF7A0B792B1208BE7FC00D
:100383001209597B007A0079101208BE1208E7059A
:100393000BE50B7002050A6403450A60030202378A
:1003A3007F011209597F801209597BFF7A0B793C2F
:1003B3001208BE7FC01209597BFF7A0B794D1208D0
:1003C300BE1207D902023722BB010689828A83E063
:1003D300225002E722BBFE02E32289828A83E4934E
:1003E30022E3F5F009E208B5F06D606B80F3E3F505
:1003F300F009E608B5F060605E80F387F009E6086F
:10040300B5F054605280F487F009E208B5F0486013
:100413004680F488828C8387F009E0A3B5F03860C6
:100423003680F488828C8387F009E493A3B5F027A0
:10043300602580F388828C83E3F5F009E0A3B5F0AF
:1004430016601480F388828C83E3F5F009E493A3A8
:10045300B5F004600280F202050F808580E7808E8C
:1004630080D2803C8015806C807E809B80B5808BA1
:1004730080A1804F8070803A02051B89828A83ECB9
:10048300FAE493F5F0A3C8C582C8CCC583CCE49342
:10049300A3C8C582C8CCC583CCB5F070606E80E1BB
:1004A30089828A83E493F5F0A3E208B5F05E605C89
:1004B30080F289828A83E0F5F0A3E608B5F04D6007
:1004C3004B80F389828A83E0F5F0A3E208B5F03C20
:1004D300603A80F389828A83E493F5F0A3E608B552
:1004E300F02A602880F2805389828A83ECFAE493AD
:1004F300F5F0A3C8C582C8CCC583CCE0A3C8C58228
:10050300C8CCC583CCB5F004600280E27FFFB5F0B0
:10051300020F2240027F012289828A83ECFAE0F5EE
:10052300F0A3C8C582C8CCC583CCE0A3C8C582C824
:10053300CCC583CCB5F0D560D380E389828A83ECC4
:10054300FAE0F5F0A3C8C582C8CCC583CCE493A375
:10055300C8C582C8CCC583CCB5F0B160AF80E28892
:10056300F0ED2402B4040050A3F582EB2402B4049A
:10057300005099232345822390045D73120003D214
:10058300A6D2A5D2A4C2A3C2A2C2A1C2A020A4562D
:10059300D2A3D2A2D2A1D2A0C2A6C2A5C2A420A095
:1005A3000E7F3112096B74162557F87631055720E3
:1005B300A10E7F3412096B74162557F8763405574C
:1005C30020A20E7F3712096B74162557F87637056C
:1005D3005730A3030206947F2A12096B741625571A
:1005E300F8762A05572220A553D2A3D2A2D2A1D2AC
:1005F300A0C2A6C2A5C2A420A00E7F3212096B74AA
:10060300162557F87632055720A10E7F3512096B50
:1006130074162557F87635055720A20E7F38120930
:100623006B74162557F87638055720A3647F30126C
:10063300096B74162557F8763005572220A652D237
:10064300A3D2A2D2A1D2A0C2A6C2A5C2A420A00EA8
:100653007F3312096B74162557F87633055720A19B
:100663000E7F3612096B74162557F8763605572018
:10067300A20E7F3912096B74162557F87639055780
:1006830020A30E7F2312096B74162557F8762305D2
:100693005722E4F558F5597BFF7A0B79D712090BEA
:1006A3007F0D1200197F011209597F801209597BAE
:1006B300007A00791B1208BE7B007A00791B1209AD
:1006C3000B7F647E001208EBE51BB44F1AE51CB4E4
:1006D3004B157F011209597F801209597BFF7A0B51
:1006E30079DA1208BE800B7BFF7A0B79EB1208BE16
:1006F30080A012098E7FC87E001208EBE4F558F53E
:10070300597BFF7A0B79FC12090B7F0D1200197FBD
:10071300011209597F801209597F647E001208EB88
:10072300E51BB44F10E51CB44B0B7BFF7A0C790629
:100733001208BE800B7BFF7A0C79171208BE80BCAF
:1007430012098E7F8A7E020208EB787FE4F6D8FDD9
:10075300758160020794020026E493A3F8E493A34F
:100763004003F68001F208DFF48029E493A3F854F0
:1007730007240CC8C333C4540F4420C8834004F473
:1007830056800146F6DFE4800B0102040810204086
:100793008090097DE47E019360BCA3FF543F30E564
:1007A30009541FFEE493A360010ECF54C025E060FB
:1007B300A840B8E493A3FAE493A3F8E493A3C8C5C9
:1007C30082C8CAC583CAF0A3C8C582C8CAC583CABA
:1007D300DFE9DEE780BE7F011209597F80120959E4
:1007E3007BFF7A0B795E1208BE7F8A7E021208EBCA
:1007F3007BFF7A0B796B12090B7F221200197BFFA7
:100803007A0B797412090B7F221200197F0D1200E3
:1008130019E55D6401455C70097BFF7A0B798212EF
:10082300090BE50B6403450A70097BFF7A0B79A575
:1008330012090B7F1A1200197F011209597F8012C6
:1008430009597BFF7A0B79CD1208BE7F8A7E02029B
:1008530008EBC0E0C0F0C083C082C0D075D000C038
:1008630000C001C002C003C004C005C006C00730F9
:100873009823741B2559F8A6990559E55970020563
:1008830058C2987B007A00791B120930EF64344E0A
:100893007003751501309902C299D007D006D005AF
:1008A300D004D003D002D001D000D0D0D082D083E6
:1008B300D0F0D0E0327BFF7A0A79F88B5E8A5F89C9
:1008C30060AB5EAA5FA9601203CB60130560E560AD
:1008D3007002055F14F91203CBFF12096B80E22249
:1008E300C2B4C2B57FF47E01E4FDFCC3ED9FEC9E70
:1008F3005015E4FBFA0BBB00010ABA04F8BBFBF585
:100903000DBD00010C80E4228B5E8A5F8960AB5EC3
:10091300AA5FA9601203CB60130560E5607002054E
:100923005F14F91203CBFF12001980E222E4FFFEE9
:100933001203CB600C0FEF70010E09E970F20A800D
:10094300EF227F381209597F0C1209597F011209CE
:10095300597F80020959C2B28F90D2B37F057E00BE
:10096300120007C2B3020007D2B28F90D2B37F0541
:100973007E00120007C2B302000702580000020AF9
:100983000000020E0000025C000000E4FF7E3C78E1
:100993001BE4F608DEFC2220202057454C434F4D34
:1009A3004520544F202020002020204F5552205016
:1009B300524F4A4543542020200020202042414EDC
:1009C3004B204C4F434B4552202020200020202019
:1009D30053454355524954592053595354454D2077
:1009E30020200020202057616974696E6720466FBC
:1009F30072202020200020202052464944205461A8
:100A0300672020200020202072656164696E6720C2
:100A1300646F6E6520202020003130303033423047
:100A2300434137002057454C434F4D4520555345CF
:100A330052203100313030303342304341450020C1
:100A430057454C434F4D45205553455220320020C6
:100A530055534552204E4F5420464F554E44200087
:100A630020524543494556494E4720202020002027
:100A7300202050415353574F524420202000202020
:100A83002052454349455645442020200020454EE9
:100A93005445522050415353574F52442020200075
:100AA300454E54455245442050415353574F5244A9
:100AB30000202020495320434F52524543542020C5
:100AC30020002020204C4F434B45522049532020E7
:100AD300202000202020204F50454E494E47202003
:100AE30020202000204C4F434B4552204F50454E71
:100AF30045442020002020202020202020202020CA
:100B0300202020202000204C4F434B455220434CB3
:100B13004F53494E472000204C4F434B45522043EF
:100B23004C4F53454420200020495320494E434F06
:100B33005252454354202020006D756C7469706CCB
:100B43006520696E76616C696400206C6F67696EFD
:100B530020617474656D707473200020534D5320AD
:100B630053454E44494E470041542B434D47533D53
:100B7300002B393139393939393939393939004261
:100B8300414E4B204C4F434B4552204953204F502D
:100B9300454E4544205355434345535346554C4CCA
:100BA3005900594F5552204C4F434B455220484111
:100BB30044204D554C5449504C45204143434553E3
:100BC30053204154454D5054530020534D5320530B
:100BD300454E54004154002047534D204C494E4B41
:100BE3002049532055502000202047534D2043488F
:100BF30045434B494E4720200041542B434D474624
:100C03003D3100202047534D2054455854204D4F2B
:100C13004445200047534D204E4F5420494E205405
:050C23004558542000BB
:00000001FF
