:1000A30057656C636F6D6520746F207468652054A9
:1000B300656368746F6F620041540041542B434D74
:0E00C30047463D310041542B434D47533D000D
:10010F00120126750BFF750C00750DA37B007A137A
:07011F00792512000380FEA8
:0F012600759850758921758DFD758BFDD28E22D0
:0601350014F9120074FF32
:08013B008F993099FDC2992251
:1000D1008B0E8A0F8910AB0EAA0FA9101200746043
:0F00E1000D0510E5107002050F12013580E822A1
:08014F003098FDC298AF99221F
:0500F0007F0D12013B31
:1000F500900000AF82AE83E4FCFD7B507AC3F9F833
:09010500C312008D4003A380EA3F
:01010E0022CE
:100003008B088A09890A7BFF7A0079BB1200D11217
:1000130000F07BFF7A0079BE1200D11200F07BFF63
:100023007A0079C81200D17F228019AB08AA09A9E6
:100033000A1200746013050AE50A7002050914F92F
:10004300120074FF12013B80E27F2212013B120077
:10005300F0AB0BAA0CA90D120074600D050DE50D94
:100063007002050C12013580E87F1A12013B020071
:01007300F597
:03000000020143B7
:0C014300787FE4F6D8FD75811202010FF0
:10007400BB010689828A83E0225002E722BBFE028A
:09008400E32289828A83E49322BD
:10008D00EB9FF5F0EA9E42F0E99D42F0EC6480C8EA
:06009D0064809845F0228A
:00000001FF
