:1002CB0020202057454C434F4D4520544F20202094
:1002DB00002020204D592050524F4A454354202096
:1002EB002000202020595420545241494E494E475A
:1002FB0020202000202020494E535449545554456A
:10030B002020200020202057616974696E672046E9
:10031B006F72202020200020202052464944205478
:10032B006167202020003130303033423043413779
:10033B00002057454C434F4D4520555345522031D6
:10034B000031303030334230434145002057454C6B
:10035B00434F4D45205553455220320020494E56B0
:09036B00414C4944205441470073
:1001B700758920758DFD759850D28E1203DA7BFFF5
:1001C7007A0279CB12037A7FC01203EE7BFF7A02A1
:1001D70079DC12037A1203C47F011203EE7F8012C7
:1001E70003EE7BFF7A0279ED12037A7FC01203EEEA
:1001F7007BFF7A0279FF12037A1203C47F0112038D
:10020700EE7F801203EE7BFF7A03790F12037A7F6A
:10021700C01203EE7BFF7A03792212037AE4F56CAE
:10022700F56D3098FDC2987408256DF8A699056D8F
:10023700E56D7002056C640A456C70E6E4F51278AA
:10024700317C037DFFFB7A00790812019AEF339521
:10025700E04F70127F011203EE7F801203EE7BFFE7
:100267007A03793C8026784C7C037DFF7B007A00FB
:10027700790812019AEF3395E04F70247F0112033A
:10028700EE7F801203EE7BFF7A03795712037A7FA2
:10029700C01203EE1203741203C412041202020303
:1002A7007F011203EE7F801203EE7BFF7A037967EB
:1002B70012037A7FC01203EE1203741203C41204EE
:0402C700120202031A
:1003DA007F381203EE7F0C1203EE7F011203EE7FC9
:0403EA00800203EE9C
:0403C4007FE87EFD53
:1003C800E4FDFCC3ED9FEC9E50070DBD00010C80C1
:0103D800F232
:0103D9002201
:1003EE00C2A08F90D2A17F057E001203C8C2A102C7
:0203FE0003C832
:10040000D2A08F90D2A17F057E001203C8C2A102A4
:0204100003C81F
:060374007B007A0079080D
:10037A008B718A728973AB71AA72A97312000360B6
:10038A00130573E5737002057214F9120003FF1264
:05039A00040080E222D6
:08042A008F993099FDC299225F
:10039F008B6E8A6F8970AB6EAA6FA97012000360A3
:1003AF00130570E5707002056F14F9120003FF1248
:0503BF00042A80E22287
:0B041200E4FF7E647808E4F608DEFCDE
:01041D0022BC
:0300000002041ED9
:0C041E00787FE4F6D8FD7581730201B709
:10000300BB010689828A83E0225002E722BBFE02FB
:09001300E32289828A83E493222E
:10001C00E3F5F009E208B5F06D606B80F3E3F5F001
:10002C0009E608B5F060605E80F387F009E608B574
:10003C00F054605280F487F009E208B5F04860464D
:10004C0080F488828C8387F009E0A3B5F0386036A1
:10005C0080F488828C8387F009E493A3B5F0276041
:10006C002580F388828C83E3F5F009E0A3B5F016C4
:10007C00601480F388828C83E3F5F009E493A3B5D4
:10008C00F004600280F2020147808580E7808E8058
:10009C00D2803C8015806C807E809B80B5808B806C
:1000AC00A1804F8070803A02015389828A83ECFAD6
:1000BC00E493F5F0A3C8C582C8CCC583CCE493A364
:1000CC00C8C582C8CCC583CCB5F070606E80E189A0
:1000DC00828A83E493F5F0A3E208B5F05E605C805D
:1000EC00F289828A83E0F5F0A3E608B5F04D604B07
:1000FC0080F389828A83E0F5F0A3E208B5F03C60D6
:10010C003A80F389828A83E493F5F0A3E608B5F08C
:10011C002A602880F2805389828A83ECFAE493F572
:10012C00F0A3C8C582C8CCC583CCE0A3C8C582C81F
:10013C00CCC583CCB5F004600280E27FFFB5F00241
:10014C000F2240027F012289828A83ECFAE0F5F0CB
:10015C00A3C8C582C8CCC583CCE0A3C8C582C8CC13
:10016C00C583CCB5F0D560D380E389828A83ECFA61
:10017C00E0F5F0A3C8C582C8CCC583CCE493A3C872
:10018C00C582C8CCC583CCB5F0B160AF80E288F035
:10019C00ED2402B4040050A3F582EB2402B4040055
:0B01AC00509923234582239000957397
:00000001FF
