:1003040020202057454C434F4D4520544F2020205A
:10031400002020204F55522050524F4A454354202C
:1003240020200020202042414E4B204C4F434B457F
:100334005220202020002020205345435552495468
:10034400592053595354454D202020002020205734
:10035400616974696E6720466F7220202020002036
:100364002020524649442054616720202000202048
:100374002072656164696E6720646F6E6520202059
:10038400200031303030334230434137002057456C
:100394004C434F4D452055534552203100313030A8
:1003A40030334230434145002057454C434F4D457F
:1003B400205553455220320020494E56414C494461
:1003C400205441470020454E544552205041535338
:1003D400574F52442020200020454E544552454456
:1003E4002050415353574F5244202020002049535A
:1003F40020434F525245435420202000204C4F4369
:100404004B4552204953204F50454E494E470020FA
:1004140020202020202020202020202020202000F8
:10042400204C4F434B4552204F50454E45440020ED
:100434004C4F434B455220434C4F53494E470020A9
:100444004C4F434B455220434C4F534544002049A5
:100454005320494E434F52524543542020200020FC
:10046400534D532053454E44494E470041542B436A
:100474004D47533D002B39313939393939393939F7
:1004840039390020534D532053454E5400415400F4
:100494002047534D204C494E4B2049532055500082
:1004A4002047534D20434845434B494E4700415450
:1004B4002B434D47463D31002047534D205445586A
:1004C40054204D4F4445002047534D204E4F542057
:0804D400494E20544558540024
:040A0C000253000091
:0300230002092CA3
:10092C00C0E0C0D075D000C000309814C2987417C5
:10093C002554F8A6990554E5547002055375110118
:0C094C00309902C299D000D0D0D0E03227
:10002600C2B4C2B5758920758DFD75985075A890B6
:10003600D28EE4F50AF50B1209C07BFF7A03790428
:1000460012095E7FC01209D47BFF7A037915120963
:100056005E1209AA7F011209D47F801209D47BFFA0
:100066007A03792712095E7FC01209D47BFF7A03CF
:10007600793A12095E1209AA750800750901E5099F
:10008600640145086003020303F508F5097F0112C0
:1000960009D47F801209D47BFF7A03795012095E56
:1000A6007FC01209D47BFF7A03796312095EE4F5F7
:1000B60053F5543098FDC29874172554F8A699053F
:1000C60054E55470020553640A455370E67F0112E5
:1000D60009D47F801209D47BFF7A03797212095EF4
:1000E600E4F52178867C037DFFFB7A0079171206FA
:1000F60073EF3395E04F701B7F011209D47F801296
:1001060009D47BFF7A03799112095E750A00750B93
:1001160001804278A17C037DFF7B007A007917126B
:100126000673EF3395E04F7F0170191209D47F8073
:100136001209D47BFF7A0379AC12095E750A007541
:100146000B0180111209D47F801209D47BFF7A0338
:1001560079BC12095E7FC01209D47B007A00791738
:1001660012095E7F647E191209AE1209F8E50B6466
:1001760001450A60030200841209F81208D2E5114B
:1001860064017045E519642B703FE51A64437039C4
:10019600E51B644D7033E51CB4542EE4F555F55655
:1001A600F55375543174172554F8E6FF740C25562B
:1001B600F8A6070556E556700205550554E5547030
:1001C6000205536435455370DC7F011209D47F80E4
:1001D6001209D47BFF7A0379C912095E7FC012091E
:1001E600D4E4F557C3E557940574809480500B7496
:1001F600122557F8E4F6055780EAE4F557C3E557A4
:10020600940474809480500512069080F0E4F516EC
:1002160078127C00FDFB7A00790C120673EF339599
:10022600E04F60030202DC1209AA7F011209D47FA3
:10023600801209D47BFF7A0379DC12095E7FC01233
:1002460009D47BFF7A0379F112095E1209AA7F01AC
:100256001209D47F801209D47BFF7A04790012092F
:100266005E7FC01209D4120958D2B41209A8120925
:10027600AA7F011209D47F801209D47BFF7A047900
:100286002412095E7FC01209D4120958C2B4120999
:10029600A81209AA7F011209D47F801209D47BFF14
:1002A6007A04793312095E7FC01209D4120958C242
:1002B600B4D2B51209AA1209AA7F801209D47BFF0B
:1002C6007A04794312095E7FC01209D4120958C212
:1002D600B4C2B50200847F011209D47F801209D40A
:1002E6007BFF7A0379DC12095E7FC01209D47BFF9B
:0E02F6007A04795212095E1209AA02008422CB
:100690001209AAD2A6D2A5D2A4C2A3C2A2C2A1C242
:1006A000A020A456D2A3D2A2D2A1D2A0C2A6C2A5F3
:1006B000C2A420A00E7F311209E674122557F876E5
:1006C00031055720A10E7F341209E674122557F820
:1006D0007634055720A20E7F371209E6741225578B
:1006E000F87637055730A3030207A57F2A1209E6DB
:1006F00074122557F8762A05572220A553D2A3D283
:10070000A2D2A1D2A0C2A6C2A5C2A420A00E7F32AE
:100710001209E674122557F87632055720A10E7F8C
:10072000351209E674122557F87635055720A20EC2
:100730007F381209E674122557F87638055720A33A
:10074000647F301209E674122557F8763005572277
:1007500020A652D2A3D2A2D2A1D2A0C2A6C2A5C222
:10076000A420A00E7F331209E674122557F87633C1
:10077000055720A10E7F361209E674122557F87628
:1007800036055720A20E7F391209E674122557F854
:100790007639055720A30E7F231209E674122557D8
:0607A000F8762305572244
:1008D2007F011209D47F801209D47BFF7A047963E5
:1008E20012095E7F8A7E021200037BFF7A0479700E
:1008F2001209837F22120A047BFF7A047979120992
:10090200837F22120A047F0D120A047F1A120A043C
:100912007F011209D47F801209D47BFF7A04798780
:0A09220012095E7F8A7E02020003C4
:1007A600E4F553F5547BFF7A0479911209837F0DA2
:1007B600120A047F011209D47F801209D47B007AC1
:1007C60000791712095E7B007A007917120983E512
:1007D60018B44F10E519B44B0B7BFF7A04799412C9
:1007E600095E800B7BFF7A0479A412095E80B11240
:1007F60009F87FE87EFD120003E4F553F5547BFF0C
:100806007A0479B21209837F0D120A047F01120954
:10081600D47F801209D4E519B44F10E51AB44B0BF6
:100826007BFF7A0479BC12095E800B7BFF7A047920
:10083600CB12095E80C31209F87F8A7E020200038A
:1009C0007F381209D47F0C1209D47F011209D47F19
:0409D000800209D4C4
:0609A800C2B57FE87EFDF0
:1009AE00E4FDFCC3ED9FEC9E50070DBD00010C80D5
:0109BE00F246
:0109BF002215
:10000300E4FDFCC3ED9FEC9E5015E4FBFA0BBB0033
:0F001300010ABA04F8BBFBF50DBD00010C80E437
:0100220022BB
:1009D400C2B28F90D2B37F057E001209AEC2B302B9
:0209E40009AE5A
:1009E600D2B28F90D2B37F057E001209AEC2B30297
:0209F60009AE48
:060958007BFF7A04791315
:10095E008B588A59895AAB58AA59A95A1204DC6085
:10096E0013055AE55A7002055914F91204DCFF12E8
:05097E0009E680E22201
:080A04008F993099FDC299227F
:100983008B588A59895AAB58AA59A95A1204DC6060
:1009930013055AE55A7002055914F91204DCFF12C3
:0509A3000A0480E222BD
:0B09F800E4FF7E3C7817E4F608DEFC0C
:010A030022D0
:03000000020846AD
:0C084600787FE4F6D8FD75815A02088D19
:1004DC00BB010689828A83E0225002E722BBFE021E
:0904EC00E32289828A83E4932251
:1004F500E3F5F009E208B5F06D606B80F3E3F5F024
:1005050009E608B5F060605E80F387F009E608B596
:10051500F054605280F487F009E208B5F04860466F
:1005250080F488828C8387F009E0A3B5F0386036C3
:1005350080F488828C8387F009E493A3B5F0276063
:100545002580F388828C83E3F5F009E0A3B5F016E6
:10055500601480F388828C83E3F5F009E493A3B5F6
:10056500F004600280F2020620808580E7808E809C
:10057500D2803C8015806C807E809B80B5808B808E
:10058500A1804F8070803A02062C89828A83ECFA1A
:10059500E493F5F0A3C8C582C8CCC583CCE493A386
:1005A500C8C582C8CCC583CCB5F070606E80E189C2
:1005B500828A83E493F5F0A3E208B5F05E605C807F
:1005C500F289828A83E0F5F0A3E608B5F04D604B29
:1005D50080F389828A83E0F5F0A3E208B5F03C60F8
:1005E5003A80F389828A83E493F5F0A3E608B5F0AF
:1005F5002A602880F2805389828A83ECFAE493F595
:10060500F0A3C8C582C8CCC583CCE0A3C8C582C841
:10061500CCC583CCB5F004600280E27FFFB5F00263
:100625000F2240027F012289828A83ECFAE0F5F0ED
:10063500A3C8C582C8CCC583CCE0A3C8C582C8CC35
:10064500C583CCB5F0D560D380E389828A83ECFA83
:10065500E0F5F0A3C8C582C8CCC583CCE493A3C894
:10066500C582C8CCC583CCB5F0B160AF80E288F057
:10067500ED2402B4040050A3F582EB2402B4040077
:0B0685005099232345822390056E73DB
:10085200020026E493A3F8E493A34003F68001F296
:1008620008DFF48029E493A3F85407240CC8C333A7
:10087200C4540F4420C8834004F456800146F6DF76
:10088200E4800B0102040810204080900A0CE47EF0
:10089200019360BCA3FF543F30E509541FFEE4936B
:1008A200A360010ECF54C025E060A840B8E493A332
:1008B200FAE493A3F8E493A3C8C582C8CAC583CA5D
:1008C200F0A3C8C582C8CAC583CADFE9DEE780BE15
:010A100000E5
:00000001FF
