:10013500496E746572666163696E672047534D2029
:0A0145007769746820383035310006
:0C018000758920758DFD759850D28E2277
:0E00BF007E001200CD7F0112014F7F0A7E00ED
:1000CD00E4FDFCC3ED9FEC9E5015E4FBFA0BBB0069
:0F00DD00010ABA04F8BBFBF50DBD00010C80E46D
:0100EC0022F1
:10014F008FA0C2B2C2B3D2B47F017E001200CDC263
:02015F00B422C8
:100161008FA0D2B2C2B3D2B47F017E001200CDC241
:02017100B422B6
:10011A007F381200C67F0F12014F7F0A1200BF7F7D
:0B012A008012014F7F0A7E000200CD12
:060084008B248A25892669
:10008A00E4F527F528AB24AA25A926852882852701
:10009A00831200EDFF601D1201610528E528700238
:1000AA0005271200C9E528640F452770D87FC212B8
:0400BA00014F80D1A1
:0100BE00221F
:080198008F993099FDC29922F4
:0D0173003098FD74082523F8A699C2982243
:10000300E4F522F52312011A1201807FC87E001243
:1000130000CD7BFF7A0179351200847FC81200BFBF
:100023007F411201981201617F017E001200CD7F92
:10003300541201981201617F017E001200CD7F0DE1
:100043001201987F321200CD120173AF2374072F70
:10005300F8E6644F702174082FF8E6B44B197F203B
:1000630012016174072523F8E6FF12016174082564
:1000730023F8E6FF0201610523E52370CB05228007
:01008300C7B5
:0300000002018C6E
:0C018C00787FE4F6D8FD7581280200039E
:1000ED00BB010CE58229F582E5833AF583E02250C8
:1000FD0006E92582F8E622BBFE06E92582F8E22212
:0D010D00E58229F582E5833AF583E493222B
:00000001FF
