:100000000206CDE4FDFCC3ED9FEC9E5015E4FBFA27
:100010000BBB00010ABA04F8BBFBF50DBD00010CD7
:1000200080E4220207B3C2B4C2B5758920758DFD84
:1000300075985075A890D28EE4F50CF50D1208470E
:100040007BFF7A08799C1207E57FC012085B7BFF73
:100050007A0879AD1207E57FE87EFD1208357F0149
:1000600012085B7F8012085B7BFF7A0879BF12075A
:10007000E57FC012085B7BFF7A0879D21207E57F23
:10008000E87EFD120835120610750800750901E5B5
:1000900009640145086003020345F508F5097F017D
:1000A00012085B7F8012085B7BFF7A0879E81207F1
:1000B000E57FC012085B7BFF7A0879FB1207E57BBE
:1000C000FF7A09790A12080A751931751A30751BF9
:1000D00030751C30751D33751E42751F30752043F9
:1000E0007521417522377F0112085B7F8012085B02
:1000F0007BFF7A0979111207E5120831E4F52378BC
:10010000257C097DFFFB7A0079191204DDEF339518
:10011000E04F701B7F0112085B7F8012085B7BFF42
:100120007A0979301207E5750C00750D0180427867
:10013000407C097DFF7B007A0079191204DDEF33E2
:1001400095E04F7F01701912085B7F8012085B7B7E
:10015000FF7A09794B1207E5750C00750D018011C6
:1001600012085B7F8012085B7BFF7A09795B1207BC
:10017000E57FC012085B7B007A0079191207E5124F
:10018000083112087FE50D6401450C600302008F01
:1001900012087F120759750E31750F3275103375BD
:1001A0001134E4F512E51364017045E51B642B700E
:1001B0003FE51C64437039E51D644D7033E51EB4A2
:1001C000542EE4F558F559F55675573174192557DD
:1001D000F8E6FF740E2559F8A6070559E55970028F
:1001E00005580557E557700205566435455670DCCD
:1001F000C3E50B9403E50A9400400302008F7F01DE
:1002000012085B7F8012085B7BFF7A09796812070E
:10021000E57FC012085BE4F555C3E555940574808D
:100220009480500B74142555F8E4F6055580EAE4E3
:10023000F555C3E55594047480948050051204FA72
:1002400080F078147C007D007B007A00790E120427
:10025000DDEF3395E04F60030203127FE87EFD126D
:1002600008357F0112085B7F8012085B7BFF7A09EB
:10027000797B1207E57FC012085B7BFF7A097990D2
:100280001207E57FE87EFD1208357F0112085B7FCB
:100290008012085B7BFF7A09799F1207E57FC01205
:1002A000085B1207DFD2B412082F1208317F011247
:1002B000085B7F8012085B7BFF7A0979C31207E530
:1002C0007FC012085B1207DFC2B412082F12083178
:1002D0007F0112085B7F8012085B7BFF7A0979D26D
:1002E0001207E57FC012085B1207DFC2B4D2B51255
:1002F00008311208317F8012085B7BFF7A0979E2AE
:100300001207E57FC012085B1207DFC2B4C2B50254
:10031000008F7F0112085B7F8012085B7BFF7A09E8
:10032000797B1207E57FC012085B7BFF7A0979F1C0
:100330001207E57FE87EFD120835050BE50B70021C
:10034000050A0201F022BB010689828A83E022505D
:1003500002E722BBFE02E32289828A83E49322E33E
:10036000F5F009E208B5F06D606B80F3E3F5F00994
:10037000E608B5F060605E80F387F009E608B5F046
:1003800054605280F487F009E208B5F04860468076
:10039000F488828C8387F009E0A3B5F0386036805A
:1003A000F488828C8387F009E493A3B5F027602555
:1003B00080F388828C83E3F5F009E0A3B5F0166042
:1003C0001480F388828C83E3F5F009E493A3B5F0FD
:1003D00004600280F202048A808580E7808E80D2E9
:1003E000803C8015806C807E809B80B5808B80A156
:1003F000804F8070803A02049689828A83ECFAE406
:1004000093F5F0A3C8C582C8CCC583CCE493A3C838
:10041000C582C8CCC583CCB5F070606E80E189829E
:100420008A83E493F5F0A3E208B5F05E605C80F2A5
:1004300089828A83E0F5F0A3E608B5F04D604B8031
:10044000F389828A83E0F5F0A3E208B5F03C603AD4
:1004500080F389828A83E493F5F0A3E608B5F02A55
:10046000602880F2805389828A83ECFAE493F5F065
:10047000A3C8C582C8CCC583CCE0A3C8C582C8CCFC
:10048000C583CCB5F004600280E27FFFB5F0020FB7
:100490002240027F012289828A83ECFAE0F5F0A3F0
:1004A000C8C582C8CCC583CCE0A3C8C582C8CCC5AA
:1004B00083CCB5F0D560D380E389828A83ECFAE0FF
:1004C000F5F0A3C8C582C8CCC583CCE493A3C8C546
:1004D00082C8CCC583CCB5F0B160AF80E288F0EDC6
:1004E0002402B4040050A3F582EB2402B4040050AB
:1004F0009923234582239003D873120831D2A6D2C0
:10050000A5D2A4C2A3C2A2C2A1C2A020A456D2A3B3
:10051000D2A2D2A1D2A0C2A6C2A5C2A420A00E7F00
:100520003112086D74142555F87631055520A10E49
:100530007F3412086D74142555F87634055520A2C1
:100540000E7F3712086D74142555F876370555302F
:10055000A30302060F7F2A12086D74142555F8763E
:100560002A05552220A553D2A3D2A2D2A1D2A0C23D
:10057000A6C2A5C2A420A00E7F3212086D74142555
:1005800055F87632055520A10E7F3512086D74148A
:100590002555F87635055520A20E7F3812086D7462
:1005A000142555F87638055520A3647F3012086D60
:1005B00074142555F8763005552220A652D2A3D2C0
:1005C000A2D2A1D2A0C2A6C2A5C2A420A00E7F33EF
:1005D00012086D74142555F87633055520A10E7F49
:1005E0003612086D74142555F87636055520A20E7E
:1005F0007F3912086D74142555F87639055520A3F6
:100600000E7F2312086D74142555F87623055522A4
:10061000E4F556F5577BFF7A0A793012080A7F0D08
:100620001208947F0112085B7F8012085B7B007ABE
:100630000079191207E57B007A00791912080A7F00
:10064000647E00120003751A4F751B4BE51AB44FF8
:100650001AE51BB44B157F0112085B7F8012085B03
:100660007BFF7A0A79331207E5800B7BFF7A0A79E0
:10067000431207E5809A12087F7FC87E00120003AC
:10068000E4F556F5577BFF7A0A795112080A7F0D77
:100690001208947F0112085B7F8012085B751B4F64
:1006A000751C4BE51BB44F10E51CB44B0B7BFF7A5C
:1006B0000A795B1207E5800B7BFF7A0A796A1207D9
:1006C000E580BD12087F7F8A7E02020003787FE406
:1006D000F6D8FD75815C020714020026E493A3F8A6
:1006E000E493A34003F68001F208DFF48029E49349
:1006F000A3F85407240CC8C333C4540F4420C88340
:100700004004F456800146F6DFE4800B0102040841
:100710001020408090088BE47E019360BCA3FF54BE
:100720003F30E509541FFEE493A360010ECF54C08F
:1007300025E060A840B8E493A3FAE493A3F8E49317
:10074000A3C8C582C8CAC583CAF0A3C8C582C8CA1F
:10075000C583CADFE9DEE780BE7F0112085B7F80C8
:1007600012085B7BFF7A0A79021207E57F8A7E0214
:100770001200037BFF7A0A790F12080A7F221208FF
:10078000947BFF7A0A791812080A7F221208947F54
:100790000D1208947F1A1208947F0112085B7F8063
:1007A00012085B7BFF7A0A79261207E57F8A7E02B0
:1007B000020003C0E0C0D075D000C000309814C261
:1007C0009874192557F8A6990557E55770020556EC
:1007D000751301309902C299D000D0D0D0E0327B9D
:1007E000FF7A0979B28B5A8A5B895CAB5AAA5BA9FA
:1007F0005C1203466013055CE55C7002055B14F94E
:10080000120346FF12086D80E2228B5A8A5B895CD4
:10081000AB5AAA5BA95C1203466013055CE55C70E9
:1008200002055B14F9120346FF12089480E222C20B
:10083000B57F647E19E4FDFCC3ED9FEC9E50070D6F
:10084000BD00010C80F2227F3812085B7F0C120879
:100850005B7F0112085B7F8002085BC2B28F90D27F
:10086000B37F057E00120835C2B3020835D2B28FBD
:1008700090D2B37F057E00120835C2B3020835E47A
:10088000FF7E3C7819E4F608DEFC220256000002E6
:100890000A0000008F993099FDC29922202020572C
:1008A000454C434F4D4520544F2020200020202010
:1008B0004F55522050524F4A45435420202000208B
:1008C000202042414E4B204C4F434B45522020208C
:1008D0002000202020534543555249545920535954
:1008E0005354454D20202000202020576169746911
:1008F0006E6720466F722020202000202020524664
:100900004944205461672020200048692062526FCA
:100910000020202072656164696E6720646F6E65D7
:100920002020202000313030303342304341370026
:100930002057454C434F4D452055534552203100DB
:1009400031303030334230434145002057454C432D
:100950004F4D45205553455220320020494E5641B7
:100960004C4944205441470020454E5445522050A4
:10097000415353574F52442020200020454E5445A8
:100980005245442050415353574F52442020200099
:1009900020495320434F52524543542020200020E9
:1009A0004C4F434B4552204953204F50454E494EE2
:1009B0004700202020202020202020202020202030
:1009C000202000204C4F434B4552204F50454E4570
:1009D0004400204C4F434B455220434C4F53494E0B
:1009E0004700204C4F434B455220434C4F53454406
:1009F0000020495320494E434F5252454354202032
:100A0000200020534D532053454E44494E4700414A
:100A1000542B434D47533D002B393139393939393E
:100A200039393939390020534D532053454E54003C
:100A30004154002047534D204C494E4B20495320F0
:100A40005550002047534D20434845434B494E479E
:100A50000041542B434D47463D31002047534D2024
:100A600054455854204D4F4445002047534D204E87
:0B0A70004F5420494E205445585400BC
:00000001FF
