:100000000206BFE4FDFCC3ED9FEC9E5015E4FBFA35
:100010000BBB00010ABA04F8BBFBF50DBD00010CD7
:1000200080E4220207A5C2B4C2B5758920758DFD92
:1000300075985075A890D28EE4F50CF50D1208391C
:100040007BFF7A08798E1207D77FC012084D7BFF9D
:100050007A08799F1207D77FE87EFD1208277F0173
:1000600012084D7F8012084D7BFF7A0879B1120784
:10007000D77FC012084D7BFF7A0879C41207D77F5B
:10008000E87EFD120827120602750800750901E5D1
:1000900009640145086003020337F508F5097F018B
:1000A00012084D7F8012084D7BFF7A0879DA12071B
:1000B000D77FC012084D7BFF7A0879ED1207D77BF6
:1000C000FF7A0879FC1207FCE4F556F5573098FDE5
:1000D000C29874192557F8A6990557E55770020577
:1000E00056640A455670E67F0112084D7F8012085B
:1000F0004D7BFF7A0979031207D7120823E4F52311
:1001000078177C097DFFFB7A0079191204CFEF3351
:1001100095E04F701B7F0112084D7F8012084D7BC8
:10012000FF7A0979221207D7750C00750D018042FC
:1001300078327C097DFF7B007A0079191204CFEFB9
:100140003395E04F7F01701912084D7F8012084DE2
:100150007BFF7A09793D1207D7750C00750D018078
:100160001112084D7F8012084D7BFF7A09794D12DC
:1001700007D77FC012084D7B007A0079191207D784
:10018000120823120871E50D6401450C600302009A
:100190008F12087112074BE51364017045E51B646B
:1001A0002B703FE51C64437039E51D644D7033E5E9
:1001B0001EB4542EE4F558F559F556755731741997
:1001C0002557F8E6FF740E2559F8A6070559E55995
:1001D000700205580557E5577002055664354556B7
:1001E00070DCC3E50B9403E50A9400400302008F22
:1001F0007F0112084D7F8012084D7BFF7A09795AE2
:100200001207D77FC012084DE4F555C3E555940594
:1002100074809480500B74142555F8E4F6055580CD
:10022000EAE4F555C3E555940474809480500512B2
:1002300004EC80F078147C007D007B007A00790E5D
:100240001204CFEF3395E04F60030203047FE87E92
:10025000FD1208277F0112084D7F8012084D7BFF99
:100260007A09796D1207D77FC012084D7BFF7A0992
:1002700079821207D77FE87EFD1208277F011208D6
:100280004D7F8012084D7BFF7A0979911207D77F45
:10029000C012084D1207D1D2B41208211208237FD0
:1002A0000112084D7F8012084D7BFF7A0979B51243
:1002B00007D77FC012084D1207D1C2B4120821120D
:1002C00008237F0112084D7F8012084D7BFF7A09B9
:1002D00079C41207D77FC012084D1207D1C2B4D219
:1002E000B51208231208237F8012084D7BFF7A097C
:1002F00079D41207D77FC012084D1207D1C2B4C2F9
:10030000B502008F7F0112084D7F8012084D7BFFE0
:100310007A09796D1207D77FC012084D7BFF7A09E1
:1003200079E31207D77FE87EFD120827050BE50B5E
:100330007002050A0201E222BB010689828A83E07B
:10034000225002E722BBFE02E32289828A83E493E1
:1003500022E3F5F009E208B5F06D606B80F3E3F598
:10036000F009E608B5F060605E80F387F009E60802
:10037000B5F054605280F487F009E208B5F04860A7
:100380004680F488828C8387F009E0A3B5F038605A
:100390003680F488828C8387F009E493A3B5F02734
:1003A000602580F388828C83E3F5F009E0A3B5F043
:1003B00016601480F388828C83E3F5F009E493A33C
:1003C000B5F004600280F202047C808580E7808EB4
:1003D00080D2803C8015806C807E809B80B5808B35
:1003E00080A1804F8070803A02048889828A83ECE1
:1003F000FAE493F5F0A3C8C582C8CCC583CCE493D6
:10040000A3C8C582C8CCC583CCB5F070606E80E14E
:1004100089828A83E493F5F0A3E208B5F05E605C1C
:1004200080F289828A83E0F5F0A3E608B5F04D609A
:100430004B80F389828A83E0F5F0A3E208B5F03CB3
:10044000603A80F389828A83E493F5F0A3E608B5E5
:10045000F02A602880F2805389828A83ECFAE49340
:10046000F5F0A3C8C582C8CCC583CCE0A3C8C582BB
:10047000C8CCC583CCB5F004600280E27FFFB5F044
:10048000020F2240027F012289828A83ECFAE0F582
:10049000F0A3C8C582C8CCC583CCE0A3C8C582C8B8
:1004A000CCC583CCB5F0D560D380E389828A83EC58
:1004B000FAE0F5F0A3C8C582C8CCC583CCE493A309
:1004C000C8C582C8CCC583CCB5F0B160AF80E28826
:1004D000F0ED2402B4040050A3F582EB2402B4042E
:1004E00000509923234582239003CA73120823D214
:1004F000A6D2A5D2A4C2A3C2A2C2A1C2A020A456C1
:10050000D2A3D2A2D2A1D2A0C2A6C2A5C2A420A028
:100510000E7F3112085F74142555F8763105552089
:10052000A10E7F3412085F74142555F876340555F2
:1005300020A20E7F3712085F74142555F876370510
:100540005530A3030206017F2A12085F7414255553
:10055000F8762A05552220A553D2A3D2A2D2A1D241
:10056000A0C2A6C2A5C2A420A00E7F3212085F744A
:10057000142555F87632055520A10E7F3512085FF7
:1005800074142555F87635055520A20E7F381208CB
:100590005F74142555F87638055520A3647F301212
:1005A000085F74142555F8763005552220A652D2DE
:1005B000A3D2A2D2A1D2A0C2A6C2A5C2A420A00E3C
:1005C0007F3312085F74142555F87633055520A142
:1005D0000E7F3612085F74142555F87636055520BF
:1005E000A20E7F3912085F74142555F87639055527
:1005F00020A30E7F2312085F74142555F876230577
:100600005522E4F556F5577BFF7A0A79221207FC4A
:100610007F0D1208867F0112084D7F8012084D7BE6
:10062000007A0079191207D77B007A00791912072E
:10063000FC7F647E00120003751A4F751B4BE51A90
:10064000B44F1AE51BB44B157F0112084D7F801281
:10065000084D7BFF7A0A79251207D7800B7BFF7A3A
:100660000A79351207D7809A1208717FC87E001266
:100670000003E4F556F5577BFF7A0A79431207FC2D
:100680007F0D1208867F0112084D7F8012084D757C
:100690001B4F751C4BE51BB44F10E51CB44B0B7B7B
:1006A000FF7A0A794D1207D7800B7BFF7A0A795CB3
:1006B0001207D780BD1208717F8A7E02020003787C
:1006C0007FE4F6D8FD75815C020706020026E493FC
:1006D000A3F8E493A34003F68001F208DFF4802935
:1006E000E493A3F85407240CC8C333C4540F442024
:1006F000C8834004F456800146F6DFE4800B010213
:1007000004081020408090087DE47E019360BCA323
:10071000FF543F30E509541FFEE493A360010ECF60
:1007200054C025E060A840B8E493A3FAE493A3F88A
:10073000E493A3C8C582C8CAC583CAF0A3C8C5824A
:10074000C8CAC583CADFE9DEE780BE7F0112084D53
:100750007F8012084D7BFF7A0979F41207D77F8AD0
:100760007E021200037BFF7A0A79011207FC7F22C6
:100770001208867BFF7A0A790A1207FC7F22120888
:10078000867F0D1208867F1A1208867F0112084D97
:100790007F8012084D7BFF7A0A79181207D77F8A6B
:1007A0007E02020003C0E0C0D075D000C0003098C7
:1007B00014C29874192557F8A6990557E557700281
:1007C0000556751301309902C299D000D0D0D0E0FF
:1007D000327BFF7A0979A48B5A8A5B895CAB5AAA6F
:1007E0005BA95C1203386013055CE55C7002055B75
:1007F00014F9120338FF12085F80E2228B5A8A5BD9
:10080000895CAB5AAA5BA95C1203386013055CE5EE
:100810005C7002055B14F9120338FF12088680E24F
:1008200022C2B57F647E19E4FDFCC3ED9FEC9E50AF
:10083000070DBD00010C80F2227F3812084D7F0C9D
:1008400012084D7F0112084D7F8002084DC2B28F01
:1008500090D2B37F057E00120827C2B3020827D2C8
:10086000B28F90D2B37F057E00120827C2B3020870
:1008700027E4FF7E3C7819E4F608DEFC22025600ED
:1008800000020A0000008F993099FDC299222020B1
:100890002057454C434F4D4520544F2020200020E9
:1008A00020204F55522050524F4A4543542020207B
:1008B0000020202042414E4B204C4F434B455220BC
:1008C00020202000202020534543555249545920D0
:1008D00053595354454D2020200020202057616952
:1008E00074696E6720466F7220202020002020202F
:1008F0005246494420546167202020004869206204
:10090000526F0020202072656164696E6720646FF9
:100910006E6520202020003130303033423043419A
:1009200037002057454C434F4D45205553455220E5
:10093000310031303030334230434145002057459B
:100940004C434F4D45205553455220320020494ECF
:1009500056414C4944205441470020454E5445528D
:100960002050415353574F52442020200020454EE1
:1009700054455245442050415353574F5244202030
:10098000200020495320434F5252454354202020F9
:1009900000204C4F434B4552204953204F50454E69
:1009A000494E4700202020202020202020202020E9
:1009B0002020202000204C4F434B4552204F5045D3
:1009C0004E454400204C4F434B455220434C4F531F
:1009D000494E4700204C4F434B455220434C4F5308
:1009E00045440020495320494E434F5252454354F9
:1009F0002020200020534D532053454E44494E475C
:100A00000041542B434D47533D002B39313939397F
:100A1000393939393939390020534D532053454E2E
:100A200054004154002047534D204C494E4B20491F
:100A300053205550002047534D20434845434B49D0
:100A40004E470041542B434D47463D31002047530C
:100A50004D2054455854204D4F4445002047534D98
:0D0A6000204E4F5420494E2054455854005C
:00000001FF
